:020000040000FA
:100000000C94DA000C9402010C9402010C9402018D
:100010000C9402010C9402010C9402010C94020154
:100020000C9402010C9402010C9402010C94C5047E
:100030000C9402010C9402010C9402010C94020134
:100040000C9423040C9402010C9493040C946D04FE
:100050000C9402010C9402010C9402010C94020114
:100060000C9402010C94020100407A10F35A00A093
:10007000724E18090010A5D4E80000E87648170071
:1000800000E40B54020000CA9A3B000000E1F505B1
:10009000000080969800000040420F000000A086FB
:1000A00001000000102700000000E803000000002D
:1000B0006400000000000A000000000001000000D1
:1000C00000002C76D888DC674F0823DFC1DFAE59EB
:1000D000E1B1B796E5E3E453C63AE651997696E87E
:1000E000E6C28426EB898C9B62ED407C6FFCEFBC02
:1000F0009C9F40F2BAA56FA5F490055A2AF75C932D
:100100006B6CF9676DC11BFCE0E40D47FEF520E662
:10011000B500D0ED902E0300943577050080841E45
:10012000080000204E0A000000C80C333333330FA0
:10013000986E12831141EF8D2114893BE65516CF3D
:10014000FEE6DB18D1844B381BF77C1D901DA4BB49
:10015000E424203284725E228100C9F124ECA1E5FE
:100160003D27000000080002010000030407000012
:1001700000000000000000000000250028002B0007
:1001800000000000240027002A00040404040404E2
:100190000404020202020202030303030303010236
:1001A0000408102040800102040810200102040805
:1001B0001020810511241FBECFEFD8E0DEBFCDBFD8
:1001C00011E0A0E0B1E0EEEBFFE102C005900D927E
:1001D000AA34B107D9F722E0AAE4B1E001C01D9228
:1001E000AB33B207E1F710E0CAEDD0E004C02197CD
:1001F000FE010E94E50DC93DD107C9F70E940B061B
:100200000C94DD0F0C94000090E0FC01E256FE4FD0
:10021000249186579E4FFC018491882399F090E0A9
:10022000880F991FFC01E058FE4FA591B491FC0185
:10023000EA58FE4F859194918FB7F894EC91E22B98
:10024000EC938FBF089590E0FC01EE59FE4F24918E
:10025000FC01E256FE4F3491FC01E657FE4FE4915B
:10026000EE23C9F0222339F0233001F1A8F4213024
:1002700019F1223029F1F0E0EE0FFF1FEA58FE4F8E
:10028000A591B4918FB7F894EC91611126C0309587
:100290003E233C938FBF08952730A9F02830C9F042
:1002A000243049F7809180008F7D03C080918000C9
:1002B0008F7780938000DFCF84B58F7784BDDBCFCD
:1002C00084B58F7DFBCF8091B0008F778093B00095
:1002D000D2CF8091B0008F7DF9CF3E2BDACF3FB7E0
:1002E000F8948091560190915701A0915801B091D6
:1002F000590126B5A89B05C02F3F19F00196A11DF5
:10030000B11D3FBFBA2FA92F982F8827BC01CD015F
:10031000620F711D811D911D42E0660F771F881FBE
:10032000991F4A95D1F70895AF92BF92CF92DF926D
:10033000EF92FF920F931F93CF93DF936C017B019A
:100340008B01040F151FEB015E01AE18BF08C0172B
:10035000D10759F06991D601ED91FC910190F0819E
:10036000E02DC6010995892B79F7C501DF91CF9161
:100370001F910F91FF90EF90DF90CF90BF90AF90C3
:100380000895FC01538D448D252F30E0842F90E09B
:10039000821B930B541710F0CF9608950197089580
:1003A000FC01918D828D981761F0A28DAE0FBF2F49
:1003B000B11D5D968C91928D9F5F9F73928F90E09F
:1003C00008958FEF9FEF0895FC01918D828D98170E
:1003D00031F0828DE80FF11D858D90E008958FEF4B
:1003E0009FEF0895FC01918D228D892F90E0805C14
:1003F0009F4F821B91098F73992708958AE591E099
:100400000E94F20121E0892B09F420E0822F089557
:1004100080E090E0892B29F00E94FE0181110C946C
:1004200000000895FC01A48DA80FB92FB11DA35A97
:10043000BF4F2C91848D90E001968F739927848F04
:10044000A689B7892C93A089B1898C918370806427
:100450008C93938D848D981306C00288F389E02DC8
:1004600080818F7D80830895EF92FF920F931F9379
:10047000CF93DF93EC0181E0888F9B8D8C8D981357
:100480001AC0E889F989808185FF15C09FB7F89463
:10049000EE89FF896083E889F989808183708064AF
:1004A00080839FBF81E090E0DF91CF911F910F91FA
:1004B000FF90EF900895F62E0B8D10E00F5F1F4F09
:1004C0000F731127E02E8C8D8E110CC00FB607FC18
:1004D000FACFE889F989808185FFF5CFCE010E94A6
:1004E0001202F1CFEB8DEC0FFD2FF11DE35AFF4F00
:1004F000F0829FB7F8940B8FEA89FB898081806234
:10050000CFCFCF93DF93EC01888D8823B9F0AA89F0
:10051000BB89E889F9898C9185FD03C0808186FDBE
:100520000DC00FB607FCF7CF8C9185FFF2CF80810D
:1005300085FFEDCFCE010E941202E9CFDF91CF916E
:100540000895089590E080E00895CF93DF93EC0143
:1005500088819981009711F00E94870E1982188274
:100560001D821C821B821A82DF91CF910895CF9346
:10057000DF93EC0160E08E810E94230161E08E81B7
:100580000E94230160E08E810E9423018BE891E0AC
:100590000197F1F7DF91CF910895CF92DF92EF921B
:1005A000FF920F931F93CF93DF936C017C0187E041
:1005B000E80EF11CD0E0C0E0062F10E0B8010C2ED0
:1005C00002C0759567950A94E2F76170F701819111
:1005D0007F010E9423012196C430D10579F7C6011D
:1005E000DF91CF911F910F91FF90EF90DF90CF900F
:1005F0000C94B702CF92DF92EF92FF920F931F936A
:10060000CF93DF93EC01F62E642F8C810E9423019F
:100610008D818F3F19F060E00E9423010F2D10E0C3
:100620008F8584FF25C06E0187E0C80ED11CF12C98
:10063000E12CB8010E2C02C0759567950A94E2F77B
:100640006170F60181916F010E942301FFEFEF1AA3
:10065000FF0A88E0E816F10461F7CE01DF91CF913F
:100660001F910F91FF90EF90DF90CF900C94B70205
:10067000B80184E0759567958A95E1F7CE010E94EF
:10068000CD026F2DCE01DF91CF911F910F91FF9081
:10069000EF90DF90CF900C94CD0240E0682F8FE177
:1006A00092E00C94FA02CF93DF93823029F4909178
:1006B0002E02986090932E028093320210923302A1
:1006C00080E48093340280E18093350280E580935A
:1006D0003602809123020E940401809124028F3F00
:1006E00011F00E940401809125020E940401CFE1D3
:1006F000D2E09E012F51324080912E0284FD0AC02B
:1007000084E090E02196281739073CF48E810E94FE
:100710000401EFCF88E090E0F5CF8BE39DE00197F7
:10072000F1F760E0809123020E94230160E0809154
:1007300025020E942301809124028F3F19F060E07E
:100740000E94230180912E0284FD39C063E08FE175
:1007500092E00E94CD02CBE4D6E4CE010197F1F7FE
:1007600063E08FE192E00E94CD022197F1F763E010
:100770008FE192E00E94CD0283E592E00197F1F7CC
:1007800062E08FE192E00E94CD0280912E028062B1
:100790000E944D0384E080932F028CE00E944D0361
:1007A00081E00E944D038BE39FE10197F1F782E026
:1007B0008093300286E0DF91CF910C944D038062EC
:1007C0000E944D038BE496E40197F1F780912E028D
:1007D00080620E944D0383E592E00197F1F78091DA
:1007E0002E0280620E944D03D0CF41E00E94FA02A7
:1007F00081E090E008950F931F93CF93DF93EC0176
:1008000088819981009759F02A813B812617370703
:1008100030F081E0DF91CF911F910F9108958B010E
:100820006F5F7F4F0E94100F009759F09983888364
:100830001B830A832C813D81232B59F7FC011082F5
:10084000E8CF80E0E7CF1F920F920FB60F921124EE
:100850002F933F938F939F93AF93BF9380915201B8
:1008600090915301A0915401B091550130915101E3
:1008700023E0230F2D3758F50196A11DB11D2093BC
:1008800051018093520190935301A0935401B0936E
:1008900055018091560190915701A0915801B09156
:1008A00059010196A11DB11D8093560190935701E6
:1008B000A0935801B0935901BF91AF919F918F912F
:1008C0003F912F910F900FBE0F901F90189526E823
:1008D000230F0296A11DB11DD2CF1F920F920FB60A
:1008E0000F9211242F933F934F935F936F937F93B6
:1008F0008F939F93AF93BF93EF93FF938AE591E01C
:100900000E941202FF91EF91BF91AF919F918F9141
:100910007F916F915F914F913F912F910F900FBEFB
:100920000F901F9018951F920F920FB60F921124DF
:100930002F938F939F93EF93FF93E0916A01F09130
:100940006B018081E0917001F091710182FD1BC00B
:100950009081809173018F5F8F7320917401821752
:1009600041F0E0917301F0E0E65AFE4F958F8093DD
:100970007301FF91EF919F918F912F910F900FBE77
:100980000F901F9018958081F4CF1F920F920FB691
:100990000F9211242F933F934F935F936F937F9305
:1009A0008F939F93AF93BF93CF93DF93EF93FF9377
:1009B00080914A01C0911B02D0E087FF24C01092B1
:1009C00085001092840080914A018F5F80934A01D4
:1009D00080914A01082E000C990B8C179D0724F476
:1009E00080914A018C30C4F18091840090918500FF
:1009F000049680349C4908F47AC0809184009091D8
:100A00008500049676C080914A01082E000C990B4F
:100A10008C179D07C4F6E0914A018E2FEE0F990BBB
:100A2000FC01EE0FFF1FE80FF91FE950FE4F808118
:100A300086FFC9CFE0914A018E2FEE0F990BFC0182
:100A4000EE0FFF1FE80FF91FE950FE4F808160E0B5
:100A50008F730E942301B7CF2091840030918500CD
:100A6000E0914A018E2FEE0F990BFC01EE0FFF1F54
:100A7000E80FF91FE950FE4F81819281820F931F89
:100A80009093890080938800E0914A018E2FEE0FA9
:100A9000990BFC01EE0FFF1FE80FF91FE950FE4F05
:100AA000808186FF11C0E0914A018E2FEE0F990BD5
:100AB000FC01EE0FFF1FE80FF91FE950FE4F808188
:100AC00061E08F730E942301FF91EF91DF91CF913D
:100AD000BF91AF919F918F917F916F915F914F9156
:100AE0003F912F910F900FBE0F901F90189580E4AB
:100AF0009CE990938900809388008FEF80934A014E
:100B0000E3CFCF9310925D0110925C0188EE93E0E9
:100B1000A0E0B0E080935E0190935F01A09360013C
:100B2000B09361018AE091E090935B0180935A0158
:100B300085EC90E0909367018093660184EC90E0EF
:100B4000909369018093680180EC90E090936B0131
:100B500080936A0181EC90E090936D0180936C0129
:100B600082EC90E090936F0180936E0186EC90E0B0
:100B7000909371018093700110927301109274012F
:100B800010927501109276011092220210922102A9
:100B90008CE191E09093200280931F028CE080937F
:100BA0002302CFEFC09324028BE08093250285E0DF
:100BB0008093260284E08093270283E080932802BA
:100BC00082E08093290210922A0210922B02109246
:100BD0002C0210922D0210922E0281E00E945303EB
:100BE00080911B028C30A0F491E0980F90931B022F
:100BF00080931C0290E0FC01EE0FFF1FE80FF91F2D
:100C0000E950FE4F88EB9BE092838183CF9108955A
:100C1000C0931C02FBCFCF93DF93CDB7DEB7A7976E
:100C20000FB6F894DEBF0FBECDBF789484B5826056
:100C300084BD84B5816084BD85B5826085BD85B580
:100C4000816085BD80916E00816080936E001092FE
:100C50008100809181008260809381008091810079
:100C6000816080938100809180008160809380000A
:100C70008091B10084608093B1008091B000816068
:100C80008093B00080917A00846080937A00809194
:100C90007A00826080937A0080917A0081608093EC
:100CA0007A0080917A00806880937A001092C10067
:100CB00080911C028C3008F050C087E00E94040133
:100CC00080911C02282F30E0F901EE0FFF1FE20F88
:100CD000F31FE950FE4F9081907C976090831092B3
:100CE0001D0210921E022CE0622F0E94D90D829FDD
:100CF000B001112430E020E0AB01420F531FFA0194
:100D0000EE0FFF1FE40FF51FE950FE4F908196FD97
:100D100016C02F5F3F4F2C30310571F781110FC086
:100D20001092800082E080938100109285001092E2
:100D30008400B19A80916F00826080936F00E0918F
:100D40001C028E2F90E0FC01EE0FFF1FE80FF91F31
:100D5000E950FE4F80818064808382E00E9404011C
:100D600084E00E9404018DE00E94040182E00E9460
:100D70005303E0916A01F0916B0182E08083E0917E
:100D80006601F09167011082E0916801F0916901BC
:100D90008FEC808310927201E0916E01F0916F01EF
:100DA00086E08083E0916C01F0916D01808180612B
:100DB0008083E0916C01F0916D0180818860808377
:100DC000E0916C01F0916D01808180688083E091F9
:100DD0006C01F0916D0180818F7D8083A8E52A2EC2
:100DE000A2E03A2EB4EB4B2E512C612C712C20E456
:100DF00020937C0080917A00806480937A008091B7
:100E00007A0086FDFCCF6091780070917900072E02
:100E1000000C880B990B0E943E0B20E030E040EA6A
:100E200050E40E949D0B20E030EC4FE754E40E9418
:100E3000620D20E030E040E05FE30E94F50C20E02E
:100E400030E048EC52E40E949D0B6B017C01E1E034
:100E5000809132028111E0E0E195F0E0E15EFD4F2A
:100E6000848980680E944D0342E150E064E271E0B1
:100E70008FE192E00E949401E0913202E23008F0AA
:100E800046C1E150F0E0E15EFD4F848980680E9438
:100E90004D031BA21AA21DA21CA21FA21EA28E01FC
:100EA0000F5F1F4F22E044E0C701B6010E94E20835
:100EB0005C01009779F0FC0101900020E9F731977F
:100EC0008F01081B190BB801CE0182960E94FB030B
:100ED00081111FC1CE0182960E94A5021A82198239
:100EE0001C821B821E821D820AA11BA101151105F5
:100EF00069F0AEA0BFA0B501CE0101960E94FB0330
:100F000081110FC1CE0101960E94A5020D811E81A3
:100F10000F5E1F4FB801CE0101960E94FB0388238C
:100F200009F407C129813A818D819E8167E371E0CF
:100F3000820F931F0E94D60F1E830D834D815E8109
:100F400069817A818FE192E00E94940189819A817E
:100F5000009711F00E94870E8AA19BA1009711F0C3
:100F60000E94870E20E030E040EF51E4C701B60157
:100F70000E94D40D18160CF0E1C04EE650E05093DC
:100F80004C0140934B01A0914B01B0914C01A03218
:100F900092E0B907BCF580911D0228E830E0281BDB
:100FA000310987FD3395220F331F220F331F49016B
:100FB000330FAA08BB0880911E029101281B31093A
:100FC00087FD3395220F331F220F331F032E000C92
:100FD000440B550B281939094A095B09A53BB10592
:100FE00014F0A4EBB0E0B7FF02C0B0E0A0E00E94B4
:100FF000850CA30192010E945B0C280D391D4A1D2E
:101000005B1DD90120911C022C3080F580911D02BE
:1010100048E850E0481B510987FD5395CA01880FE5
:10102000991F880F991FA817B90784F080911E0295
:10103000A101481B510987FD5395CA01880F991FCB
:10104000880F991FA817B9070CF4CD010297880FD4
:10105000991F4FB7F89430E0F901EE0FFF1FE20F30
:10106000F31FE950FE4F928381834FBF20E030E0B1
:1010700040EF51E4C701B6010E94D40D18160CF0E0
:101080007DC010924E0110924D0181E090E090934E
:10109000500180934F0160914F0184E00E94230131
:1010A00060914D0182E00E9423010E946F014B017B
:1010B0005C0184EFC82EDD24D394E12CF12C0E9436
:1010C0006F01681979098A099B09683E7340810597
:1010D0009105A8F351E0C51AD108E108F10888EE9E
:1010E000880E83E0981EA11CB11CC114D104E10438
:1010F000F10429F740E050E0452B09F478CE0E9436
:10110000FE01882309F473CE0E94000070CEE1E056
:10111000B9CE1FA30EA3B5018AA19BA10E94D60F31
:10112000DDCEBE82AD82B80189819A810E94D60F40
:10113000EDCECE0101960E94A50200CF20E030E066
:1011400048EC51E4C701B6010E94D40D87FD11C0DF
:1011500020E030E040EF51E4C701B6010E94370BB8
:1011600018163CF082E390E090934C0180934B0181
:101170000ACF10924C0110924B0105CF20E030E0D5
:1011800048EC51E4C701B6010E94D40D87FD15C09B
:1011900020E030E040EF51E4C701B6010E94370B78
:1011A00018165CF041E050E050934E0140934D0121
:1011B0001092500110924F016ECF10924E0110927A
:1011C0004D01F6CFEF920F931F93CF93DF93E8017A
:1011D00034E047FD34E1042E000C550B57FF03C0EB
:1011E000519541955109E32E022F242FAE010E9403
:1011F0000009CE01DF91CF911F910F91EF900895DB
:10120000A9E0B0E0E6E0F9E00C94930C6A01F22E5C
:10121000B02E102FFBE3AF2EA01608F41BE31F5FC8
:10122000012F27E0AE014F5F5F4F0E945F0ABC01B4
:101230008981982F9970913009F43FC09BE2E1FCBD
:1012400004C09E2D9170E0FC3AC05E2D5071E82FD5
:10125000E87083FF46C084E0911101C083E0EF2D68
:10126000E81B8F1508F0E0E0D6018E2F20E2552311
:1012700051F1992329F0D6019C93C60101966C0186
:1012800096012D5F3F4FE2FE24C08EE4D6018C9381
:1012900091E411969C93119712968C93D9018E2FFD
:1012A00090E281111BC0E20FF32FF11D10828EEF2F
:1012B0009FEF2996ECE00C94AF0C9DE2C6CF90E234
:1012C000C4CF2D9381508111FCCFCE0ED11CE0E014
:1012D000D0CF8EE6D6018C9391E6DBCF9D938150E3
:1012E000E0CF482F447082FF3DC084E0911101C0DF
:1012F00083E08F1510F4EF2DE81BD6018E2F20E22E
:10130000552309F1992329F0D6019C93C601019632
:101310006C0196012D5F3F4FE2FE1BC089E4D601B0
:101320008C938EE411968C93119786E412968C938D
:10133000D9018E2F90E2882309F4B5CF9D93815077
:10134000FACF2D9381508111FCCFCE0ED11CE0E05D
:10135000D9CF89E6D6018C938EE611968C9311979E
:1013600086E6E4CF9B0177FF02C030E020E0A1E0F9
:10137000B0E0911102C0B0E0A0E0F9013196AE0FEB
:10138000BF1F8B2C912CBB2009F461C05401EFEFDF
:10139000AE1ABE0AAA0DBB1DFA161B0619F014F0F0
:1013A0004F2D4A1B511188C0E3FC59C07601A42F70
:1013B000B0E2A1114FC0C40ED11C992309F45BC047
:1013C00040E0D6011196F60190836D01552309F492
:1013D00048C0012F060F9A81582F507184FF03C017
:1013E000913309F4015010160CF047C0093008F091
:1013F00008E0EEE2FE2E5B01A01AB108850191948F
:10140000819491082F3F320729F4D601FC92F6010E
:1014100031966F016217730794F1021713077CF579
:10142000DB01A21BB30BAA24A394B12CAC0EBD1EEE
:10143000AA0DBB1D11968C9121503109D601119630
:1014400028153905F4F0F60180836D01DBCFB12C4E
:10145000A12CA0CFF701B1937F01A150AACF911188
:10146000B0CFD601942F50E302C05D9391509111FB
:10147000FCCFC40ED11C40E0ACCF01E0BACF80E37A
:10148000DBCF6217730731F4963388F4953311F488
:10149000552369F0F6018083FD01842F90E28111CC
:1014A00008C0A40FB11D1C9290E080E002CF81E340
:1014B000F1CF91938150F3CF911183CF8ACF283010
:1014C00008F027E03327DA01990F311D87FD91607D
:1014D00000966105710539F432602E5F3D9330E36B
:1014E0002A95E1F708959F3F30F080387105610536
:1014F00009F03C5F3C5F3D93913008F08068911D9E
:10150000DF93CF931F930F93FF92EF92192F987F42
:101510009695E92F96959695E90FFF27EE53FF4F85
:1015200099273327EE24FF24A701E70105900894AB
:10153000079428F4360FE71EF81E491F511D660F49
:10154000771F881F991F0694A1F70590079428F428
:10155000E70EF81E491F561FC11D770F881F991FE0
:10156000661F0694A1F70590079428F4F80E491F0A
:10157000561FC71FD11D880F991F661F771F06941E
:10158000A1F70590079420F4490F561FC71FD81FD5
:10159000990F661F771F881F0694A9F784911095ED
:1015A000177041F0D695C79557954795F794E794EE
:1015B0001A95C1F7E8E6F0E0689415901591359119
:1015C0006591959105907FE27395E118F10A430BBF
:1015D000560BC90BD009C0F7E10CF11E431F561F73
:1015E000C91FD01D7EF4703311F48A95E6CFE894BC
:1015F000015030F0080F0AF40027021708F4202FDA
:101600002395022F7A3328F079E37D932A95E9F721
:1016100010C07D932A9589F606949795679537951E
:1016200017951794E118F10A430B560BC90BD00913
:1016300098F023957E9173957A3308F070E37C934C
:101640002013B8F77E9170617D9330F0839571E33C
:101650007D9370E32A95E1F71124EF90FF900F91AD
:101660001F91CF91DF91992787FD909508950E9452
:10167000790B08F481E00895E89409C097FB3EF4E3
:1016800090958095709561957F4F8F4F9F4F9923CF
:10169000A9F0F92F96E9BB279395F695879577954D
:1016A0006795B795F111F8CFFAF4BB0F11F460FF0D
:1016B0001BC06F5F7F4F8F4F9F4F16C0882311F065
:1016C00096E911C0772321F09EE8872F762F05C079
:1016D000662371F096E8862F70E060E02AF09A9514
:1016E000660F771F881FDAF7880F9695879597F909
:1016F0000895990F0008550FAA0BE0E8FEEF1616A3
:101700001706E807F907C0F012161306E407F507F5
:1017100098F0621B730B840B950B39F40A2661F069
:10172000232B242B252B21F408950A2609F4A1400C
:10173000A6958FEF811D811D08950E94B00B0C941A
:10174000210C0E94130C38F00E941A0C20F09523F3
:1017500011F00C940A0C0C94100C11240C94550CE0
:101760000E94320C70F3959FC1F3950F50E0551F06
:10177000629FF001729FBB27F00DB11D639FAA27E6
:10178000F00DB11DAA1F649F6627B00DA11D661F35
:10179000829F2227B00DA11D621F739FB00DA11D56
:1017A000621F839FA00D611D221F749F3327A00D10
:1017B000611D231F849F600D211D822F762F6A2FAC
:1017C00011249F5750409AF0F1F088234AF0EE0F11
:1017D000FF1FBB1F661F771F881F91505040A9F73E
:1017E0009E3F510580F00C940A0C0C94550C5F3F01
:1017F000E4F3983ED4F3869577956795B795F7957A
:10180000E7959F5FC1F7FE2B880F911D96958795F1
:1018100097F9089597F99F6780E870E060E0089570
:101820009FEF80EC089500240A94161617061806F8
:101830000906089500240A941216130614060506D4
:101840000895092E0394000C11F4882352F0BB0F65
:1018500040F4BF2B11F460FF04C06F5F7F4F8F4FC8
:101860009F4F089557FD9058440F551F59F05F3F03
:1018700071F04795880F97FB991F61F09F3F79F0B2
:1018800087950895121613061406551FF2CF469534
:10189000F1DF08C0161617061806991FF1CF8695B6
:1018A0007105610508940895E894BB27662777279A
:1018B000CB0197F90895052E97FB1EF400940E9422
:1018C000720C57FD07D00E94C40C07FC03D04EF4E5
:1018D0000C94720C50954095309521953F4F4F4F89
:1018E0005F4F089590958095709561957F4F8F4FCC
:1018F0009F4F08950E94E60CA59F900DB49F900DF8
:10190000A49F800D911D11240895B7FF0C947A0CAB
:101910000E947A0C821B930B08952F923F924F9254
:101920005F926F927F928F929F92AF92BF92CF926F
:10193000DF92EF92FF920F931F93CF93DF93CDB778
:10194000DEB7CA1BDB0B0FB6F894DEBF0FBECDBFF0
:1019500009942A88398848885F846E847D848C84C1
:101960009B84AA84B984C884DF80EE80FD800C81CA
:101970001B81AA81B981CE0FD11D0FB6F894DEBFAD
:101980000FBECDBFED010895A1E21A2EAA1BBB1B0D
:10199000FD010DC0AA1FBB1FEE1FFF1FA217B3073B
:1019A000E407F50720F0A21BB30BE40BF50B661F51
:1019B000771F881F991F1A9469F760957095809515
:1019C00090959B01AC01BD01CF010895A29FB0018C
:1019D000B39FC001A39F700D811D1124911DB29F63
:1019E000700D811D1124911D08955058BB27AA2701
:1019F0000E940D0D0C94210C0E94130C38F00E94D3
:101A00001A0C20F039F49F3F19F426F40C94100CB2
:101A10000EF4E095E7FB0C940A0CE92F0E94320CBF
:101A200058F3BA17620773078407950720F079F413
:101A3000A6F50C94540C0EF4E0950B2EBA2FA02DA5
:101A40000B01B90190010C01CA01A0011124FF276B
:101A5000591B99F0593F50F4503E68F11A16F04066
:101A6000A22F232F342F4427585FF3CF4695379565
:101A70002795A795F0405395C9F77EF41F16BA0B2A
:101A8000620B730B840BBAF09150A1F0FF0FBB1FD8
:101A9000661F771F881FC2F70EC0BA0F621F731F21
:101AA000841F48F4879577956795B795F7959E3F7E
:101AB00008F0B0CF9395880F08F09927EE0F97950F
:101AC000879508950E94760D0C94210C0E941A0CA3
:101AD00058F00E94130C40F029F45F3F29F00C9459
:101AE0000A0C51110C94550C0C94100C0E94320CE1
:101AF00068F39923B1F3552391F3951B550BBB273D
:101B0000AA2762177307840738F09F5F5F4F220F81
:101B1000331F441FAA1FA9F335D00E2E3AF0E0E878
:101B200032D091505040E695001CCAF72BD0FE2FC2
:101B300029D0660F771F881FBB1F26173707480756
:101B4000AB07B0E809F0BB0B802DBF01FF2793580E
:101B50005F4F3AF09E3F510578F00C940A0C0C94BC
:101B6000550C5F3FE4F3983ED4F3869577956795DF
:101B7000B795F7959F5FC9F7880F911D9695879543
:101B800097F90895E1E0660F771F881FBB1F621762
:101B900073078407BA0720F0621B730B840BBA0B20
:101BA000EE1F88F7E09508950E94790B08F48FEFF7
:101BB0000895991B79E004C0991F961708F0961BA9
:101BC000881F7A95C9F780950895EE0FFF1F05903D
:101BD000F491E02D09940F931F93CF93DF938230FC
:101BE000910510F482E090E0E0913902F0913A0220
:101BF00030E020E0B0E0A0E0309799F42115310505
:101C000009F44AC0281B390B24303105D8F58A81E4
:101C10009B816115710589F1FB0193838283FE012C
:101C200011C0408151810281138148175907E0F0AA
:101C30004817590799F4109761F012960C93129770
:101C400013961C933296CF01DF91CF911F910F9184
:101C500008950093390210933A02F4CF211531050B
:101C600051F04217530738F0A901DB019A01BD0179
:101C7000DF01F801C1CFEF01F9CF90933A028093D1
:101C80003902CDCFFE01E20FF31F819391932250D1
:101C9000310939832883D7CF209137023091380218
:101CA000232B41F42091020130910301309338023B
:101CB0002093370220910001309101012115310557
:101CC00041F42DB73EB74091040150910501241B0A
:101CD000350BE0913702F0913802E217F307A0F4D8
:101CE0002E1B3F0B2817390778F0AC014E5F5F4F72
:101CF0002417350748F04E0F5F1F5093380240936A
:101D00003702819391939FCFF0E0E0E09CCFCF9397
:101D1000DF930097E9F0FC01329713821282A091C1
:101D20003902B0913A02ED0130E020E01097A1F4C1
:101D300020813181820F931F209137023091380228
:101D40002817390709F061C0F0933802E093370291
:101D5000DF91CF910895EA01CE17DF07E8F54A81B8
:101D60005B819E0141155105B1F7E901FB83EA83CF
:101D700049915991C40FD51FEC17FD0761F480817B
:101D800091810296840F951FE9019983888382814E
:101D900093819B838A83F0E0E0E012968D919C9181
:101DA00013970097B9F52D913C911197CD010296AB
:101DB000820F931F2091370230913802281739077C
:101DC00039F6309751F510923A0210923902B093D9
:101DD0003802A0933702BCCFD383C28340815181A4
:101DE000840F951FC817D90761F44E5F5F4F888134
:101DF0009981480F591F518340838A819B81938326
:101E000082832115310509F0B0CFF0933A02E093B7
:101E100039029ECFFD01DC01C0CF13821282D7CFE1
:101E2000B0E0A0E0E6E1FFE00C948F0C8C0100979D
:101E300051F4CB010E94EB0D8C01C801CDB7DEB788
:101E4000E0E10C94AB0CFC01E60FF71F9C01225063
:101E50003109E217F30708F49DC0D901CD91DC9157
:101E60001197C617D70798F0C530D10530F3CE01CA
:101E700004978617970708F3C61BD70B2297C193C1
:101E8000D1936D937C93CF010E94870ED6CF5B01D7
:101E9000AC1ABD0A4C018C0E9D1EA0913902B09166
:101EA0003A02512C412CF12CE12C109731F5809104
:101EB0003702909138028815990509F05CC04616E2
:101EC000570608F058C080910001909101010097D9
:101ED00041F48DB79EB74091040150910501841BD8
:101EE000950BE817F90708F055C0F0933802E09316
:101EF0003702F90171836083A0CF8D919C91119776
:101F000012966C90129713967C901397A815B905AA
:101F100059F56C0142E0C40ED11CCA14DB0420F157
:101F2000AC014A195B09DA011296159780F06282BA
:101F3000738251834083D9016D937C93E114F10442
:101F400071F0D7011396FC93EE93129776CF2296F9
:101F50008C0F9D1FF90191838083F301EFCFF093E4
:101F60003A02E093390269CF4816590608F42C0169
:101F70007D01D3019ACFCB010E94EB0D7C0100972C
:101F800049F0AE01B8010E94CD0FC8010E94870E32
:101F9000870153CF10E000E050CFFB01DC0102C00D
:101FA00001900D9241505040D8F70895FB01DC019B
:101FB00001900D920020E1F70895F894FFCF000002
:101FC0003B0280000000000034029401C101810244
:101FD000F201D001E40100000000F5039401A20227
:101FE000A10253756875205361617420496E693A86
:101FF00020202020004320202020202020202020DE
:08200000202020202020000018
:107E0000112484B714BE81FFF0D085E080938100F7
:107E100082E08093C00088E18093C10086E0809377
:107E2000C20080E18093C4008EE0C9D0259A86E02C
:107E300020E33CEF91E0309385002093840096BBD3
:107E4000B09BFECF1D9AA8958150A9F7CC24DD24C4
:107E500088248394B5E0AB2EA1E19A2EF3E0BF2EE7
:107E6000A2D0813461F49FD0082FAFD0023811F036
:107E7000013811F484E001C083E08DD089C08234E0
:107E800011F484E103C0853419F485E0A6D080C0E4
:107E9000853579F488D0E82EFF2485D0082F10E0AE
:107EA000102F00270E291F29000F111F8ED06801E7
:107EB0006FC0863521F484E090D080E0DECF843638
:107EC00009F040C070D06FD0082F6DD080E0C81688
:107ED00080E7D80618F4F601B7BEE895C0E0D1E017
:107EE00062D089930C17E1F7F0E0CF16F0E7DF06D8
:107EF00018F0F601B7BEE89568D007B600FCFDCFD4
:107F0000A601A0E0B1E02C9130E011968C91119780
:107F100090E0982F8827822B932B1296FA010C0160
:107F200087BEE89511244E5F5F4FF1E0A038BF0790
:107F300051F7F601A7BEE89507B600FCFDCF97BE46
:107F4000E89526C08437B1F42ED02DD0F82E2BD052
:107F50003CD0F601EF2C8F010F5F1F4F84911BD097
:107F6000EA94F801C1F70894C11CD11CFA94CF0C13
:107F7000D11C0EC0853739F428D08EE10CD085E9AC
:107F80000AD08FE07ACF813511F488E018D01DD067
:107F900080E101D065CF982F8091C00085FFFCCF94
:107FA0009093C60008958091C00087FFFCCF809118
:107FB000C00084FD01C0A8958091C6000895E0E648
:107FC000F0E098E1908380830895EDDF803219F02E
:107FD00088E0F5DFFFCF84E1DECF1F93182FE3DFCA
:107FE0001150E9F7F2DF1F91089580E0E8DFEE27F6
:047FF000FF270994CA
:027FFE00040479
:00000001FF
